{
  "_format": "hh-sol-artifact-1",
  "contractName": "Marketplace",
  "sourceName": "contracts/Marketplace.sol",
  "abi": [
    {
      "inputs": [],
      "stateMutability": "nonpayable",
      "type": "constructor"
    },
    {
      "anonymous": false,
      "inputs": [
        {
          "indexed": true,
          "internalType": "address",
          "name": "owner",
          "type": "address"
        },
        {
          "indexed": true,
          "internalType": "address",
          "name": "approved",
          "type": "address"
        },
        {
          "indexed": true,
          "internalType": "uint256",
          "name": "tokenId",
          "type": "uint256"
        }
      ],
      "name": "Approval",
      "type": "event"
    },
    {
      "anonymous": false,
      "inputs": [
        {
          "indexed": true,
          "internalType": "address",
          "name": "owner",
          "type": "address"
        },
        {
          "indexed": true,
          "internalType": "address",
          "name": "operator",
          "type": "address"
        },
        {
          "indexed": false,
          "internalType": "bool",
          "name": "approved",
          "type": "bool"
        }
      ],
      "name": "ApprovalForAll",
      "type": "event"
    },
    {
      "anonymous": false,
      "inputs": [
        {
          "indexed": false,
          "internalType": "uint256",
          "name": "_fromTokenId",
          "type": "uint256"
        },
        {
          "indexed": false,
          "internalType": "uint256",
          "name": "_toTokenId",
          "type": "uint256"
        }
      ],
      "name": "BatchMetadataUpdate",
      "type": "event"
    },
    {
      "anonymous": false,
      "inputs": [
        {
          "indexed": false,
          "internalType": "address",
          "name": "buyer",
          "type": "address"
        },
        {
          "indexed": false,
          "internalType": "uint256[]",
          "name": "tokenIds",
          "type": "uint256[]"
        }
      ],
      "name": "Buy",
      "type": "event"
    },
    {
      "anonymous": false,
      "inputs": [
        {
          "indexed": false,
          "internalType": "uint256",
          "name": "_tokenId",
          "type": "uint256"
        }
      ],
      "name": "MetadataUpdate",
      "type": "event"
    },
    {
      "anonymous": false,
      "inputs": [
        {
          "indexed": false,
          "internalType": "uint256",
          "name": "tokenId",
          "type": "uint256"
        }
      ],
      "name": "MintNFT",
      "type": "event"
    },
    {
      "anonymous": false,
      "inputs": [
        {
          "indexed": true,
          "internalType": "address",
          "name": "from",
          "type": "address"
        },
        {
          "indexed": true,
          "internalType": "address",
          "name": "to",
          "type": "address"
        },
        {
          "indexed": true,
          "internalType": "uint256",
          "name": "tokenId",
          "type": "uint256"
        }
      ],
      "name": "Transfer",
      "type": "event"
    },
    {
      "inputs": [
        {
          "internalType": "address",
          "name": "to",
          "type": "address"
        },
        {
          "internalType": "uint256",
          "name": "tokenId",
          "type": "uint256"
        }
      ],
      "name": "approve",
      "outputs": [],
      "stateMutability": "nonpayable",
      "type": "function"
    },
    {
      "inputs": [
        {
          "internalType": "address",
          "name": "owner",
          "type": "address"
        }
      ],
      "name": "balanceOf",
      "outputs": [
        {
          "internalType": "uint256",
          "name": "",
          "type": "uint256"
        }
      ],
      "stateMutability": "view",
      "type": "function"
    },
    {
      "inputs": [
        {
          "internalType": "uint256[]",
          "name": "arr",
          "type": "uint256[]"
        }
      ],
      "name": "buyNFTs",
      "outputs": [],
      "stateMutability": "payable",
      "type": "function"
    },
    {
      "inputs": [
        {
          "internalType": "uint256",
          "name": "tokenId",
          "type": "uint256"
        }
      ],
      "name": "getApproved",
      "outputs": [
        {
          "internalType": "address",
          "name": "",
          "type": "address"
        }
      ],
      "stateMutability": "view",
      "type": "function"
    },
    {
      "inputs": [
        {
          "internalType": "uint256",
          "name": "tokenId",
          "type": "uint256"
        }
      ],
      "name": "getNftData",
      "outputs": [
        {
          "internalType": "uint256",
          "name": "",
          "type": "uint256"
        },
        {
          "internalType": "bool",
          "name": "",
          "type": "bool"
        }
      ],
      "stateMutability": "view",
      "type": "function"
    },
    {
      "inputs": [
        {
          "internalType": "address",
          "name": "owner",
          "type": "address"
        },
        {
          "internalType": "address",
          "name": "operator",
          "type": "address"
        }
      ],
      "name": "isApprovedForAll",
      "outputs": [
        {
          "internalType": "bool",
          "name": "",
          "type": "bool"
        }
      ],
      "stateMutability": "view",
      "type": "function"
    },
    {
      "inputs": [
        {
          "internalType": "uint256",
          "name": "price",
          "type": "uint256"
        },
        {
          "internalType": "string",
          "name": "tokenUri",
          "type": "string"
        }
      ],
      "name": "mint",
      "outputs": [],
      "stateMutability": "nonpayable",
      "type": "function"
    },
    {
      "inputs": [],
      "name": "name",
      "outputs": [
        {
          "internalType": "string",
          "name": "",
          "type": "string"
        }
      ],
      "stateMutability": "view",
      "type": "function"
    },
    {
      "inputs": [
        {
          "internalType": "uint256",
          "name": "tokenId",
          "type": "uint256"
        }
      ],
      "name": "ownerOf",
      "outputs": [
        {
          "internalType": "address",
          "name": "",
          "type": "address"
        }
      ],
      "stateMutability": "view",
      "type": "function"
    },
    {
      "inputs": [
        {
          "internalType": "address",
          "name": "from",
          "type": "address"
        },
        {
          "internalType": "address",
          "name": "to",
          "type": "address"
        },
        {
          "internalType": "uint256",
          "name": "tokenId",
          "type": "uint256"
        }
      ],
      "name": "safeTransferFrom",
      "outputs": [],
      "stateMutability": "nonpayable",
      "type": "function"
    },
    {
      "inputs": [
        {
          "internalType": "address",
          "name": "from",
          "type": "address"
        },
        {
          "internalType": "address",
          "name": "to",
          "type": "address"
        },
        {
          "internalType": "uint256",
          "name": "tokenId",
          "type": "uint256"
        },
        {
          "internalType": "bytes",
          "name": "data",
          "type": "bytes"
        }
      ],
      "name": "safeTransferFrom",
      "outputs": [],
      "stateMutability": "nonpayable",
      "type": "function"
    },
    {
      "inputs": [
        {
          "internalType": "address",
          "name": "operator",
          "type": "address"
        },
        {
          "internalType": "bool",
          "name": "approved",
          "type": "bool"
        }
      ],
      "name": "setApprovalForAll",
      "outputs": [],
      "stateMutability": "nonpayable",
      "type": "function"
    },
    {
      "inputs": [
        {
          "internalType": "bytes4",
          "name": "interfaceId",
          "type": "bytes4"
        }
      ],
      "name": "supportsInterface",
      "outputs": [
        {
          "internalType": "bool",
          "name": "",
          "type": "bool"
        }
      ],
      "stateMutability": "view",
      "type": "function"
    },
    {
      "inputs": [],
      "name": "symbol",
      "outputs": [
        {
          "internalType": "string",
          "name": "",
          "type": "string"
        }
      ],
      "stateMutability": "view",
      "type": "function"
    },
    {
      "inputs": [
        {
          "internalType": "uint256",
          "name": "tokenId",
          "type": "uint256"
        }
      ],
      "name": "tokenURI",
      "outputs": [
        {
          "internalType": "string",
          "name": "",
          "type": "string"
        }
      ],
      "stateMutability": "view",
      "type": "function"
    },
    {
      "inputs": [
        {
          "internalType": "address",
          "name": "from",
          "type": "address"
        },
        {
          "internalType": "address",
          "name": "to",
          "type": "address"
        },
        {
          "internalType": "uint256",
          "name": "tokenId",
          "type": "uint256"
        }
      ],
      "name": "transferFrom",
      "outputs": [],
      "stateMutability": "nonpayable",
      "type": "function"
    }
  ],
  "bytecode": "0x60806040523480156200001157600080fd5b506040518060400160405280600481526020017f534e4654000000000000000000000000000000000000000000000000000000008152506040518060400160405280600481526020017f534e46540000000000000000000000000000000000000000000000000000000081525081600090816200008f919062000324565b508060019081620000a1919062000324565b5050506200040b565b600081519050919050565b7f4e487b7100000000000000000000000000000000000000000000000000000000600052604160045260246000fd5b7f4e487b7100000000000000000000000000000000000000000000000000000000600052602260045260246000fd5b600060028204905060018216806200012c57607f821691505b602082108103620001425762000141620000e4565b5b50919050565b60008190508160005260206000209050919050565b60006020601f8301049050919050565b600082821b905092915050565b600060088302620001ac7fffffffffffffffffffffffffffffffffffffffffffffffffffffffffffffffff826200016d565b620001b886836200016d565b95508019841693508086168417925050509392505050565b6000819050919050565b6000819050919050565b600062000205620001ff620001f984620001d0565b620001da565b620001d0565b9050919050565b6000819050919050565b6200022183620001e4565b6200023962000230826200020c565b8484546200017a565b825550505050565b600090565b6200025062000241565b6200025d81848462000216565b505050565b5b8181101562000285576200027960008262000246565b60018101905062000263565b5050565b601f821115620002d4576200029e8162000148565b620002a9846200015d565b81016020851015620002b9578190505b620002d1620002c8856200015d565b83018262000262565b50505b505050565b600082821c905092915050565b6000620002f960001984600802620002d9565b1980831691505092915050565b6000620003148383620002e6565b9150826002028217905092915050565b6200032f82620000aa565b67ffffffffffffffff8111156200034b576200034a620000b5565b5b62000357825462000113565b6200036482828562000289565b600060209050601f8311600181146200039c576000841562000387578287015190505b62000393858262000306565b86555062000403565b601f198416620003ac8662000148565b60005b82811015620003d657848901518255600182019150602085019450602081019050620003af565b86831015620003f65784890151620003f2601f891682620002e6565b8355505b6001600288020188555050505b505050505050565b61357f806200041b6000396000f3fe6080604052600436106100f35760003560e01c806370a082311161008a578063a802d82b11610059578063a802d82b1461032b578063b88d4fde14610369578063c87b56dd14610392578063e985e9c5146103cf576100f3565b806370a082311461027157806377097fc8146102ae57806395d89b41146102d7578063a22cb46514610302576100f3565b8063095ea7b3116100c6578063095ea7b3146101b957806323b872dd146101e257806342842e0e1461020b5780636352211e14610234576100f3565b806301ffc9a7146100f85780630256e8bc1461013557806306fdde0314610151578063081812fc1461017c575b600080fd5b34801561010457600080fd5b5061011f600480360381019061011a9190611f96565b61040c565b60405161012c9190611fde565b60405180910390f35b61014f600480360381019061014a9190612188565b61046d565b005b34801561015d57600080fd5b506101666107de565b6040516101739190612250565b60405180910390f35b34801561018857600080fd5b506101a3600480360381019061019e9190612272565b610870565b6040516101b091906122e0565b60405180910390f35b3480156101c557600080fd5b506101e060048036038101906101db9190612327565b6108b6565b005b3480156101ee57600080fd5b5061020960048036038101906102049190612367565b6109cd565b005b34801561021757600080fd5b50610232600480360381019061022d9190612367565b610a2d565b005b34801561024057600080fd5b5061025b60048036038101906102569190612272565b610a4d565b60405161026891906122e0565b60405180910390f35b34801561027d57600080fd5b50610298600480360381019061029391906123ba565b610ad3565b6040516102a591906123f6565b60405180910390f35b3480156102ba57600080fd5b506102d560048036038101906102d091906124c6565b610b8a565b005b3480156102e357600080fd5b506102ec610c99565b6040516102f99190612250565b60405180910390f35b34801561030e57600080fd5b506103296004803603810190610324919061254e565b610d2b565b005b34801561033757600080fd5b50610352600480360381019061034d9190612272565b610d41565b60405161036092919061258e565b60405180910390f35b34801561037557600080fd5b50610390600480360381019061038b9190612658565b610d9f565b005b34801561039e57600080fd5b506103b960048036038101906103b49190612272565b610e01565b6040516103c69190612250565b60405180910390f35b3480156103db57600080fd5b506103f660048036038101906103f191906126db565b610f13565b6040516104039190611fde565b60405180910390f35b6000634906490660e01b7bffffffffffffffffffffffffffffffffffffffffffffffffffffffff1916827bffffffffffffffffffffffffffffffffffffffffffffffffffffffff19161480610466575061046582610fa7565b5b9050919050565b6000815190506000808267ffffffffffffffff8111156104905761048f61200f565b5b6040519080825280602002602001820160405280156104c957816020015b6104b6611f0e565b8152602001906001900390816104ae5790505b50905060005b8381101561065e576104fa8582815181106104ed576104ec61271b565b5b6020026020010151611089565b610539576040517f08c379a000000000000000000000000000000000000000000000000000000000815260040161053090612796565b60405180910390fd5b600085828151811061054e5761054d61271b565b5b6020026020010151905060086000828152602001908152602001600020604051806040016040529081600082015481526020016001820160009054906101000a900460ff1615151515815250508383815181106105ae576105ad61271b565b5b6020026020010181905250600015158383815181106105d0576105cf61271b565b5b60200260200101516020015115151461061e576040517f08c379a000000000000000000000000000000000000000000000000000000000815260040161061590612802565b60405180910390fd5b8282815181106106315761063061271b565b5b602002602001015160000151846106489190612851565b935050808061065690612885565b9150506104cf565b5060003490508281146106a6576040517f08c379a000000000000000000000000000000000000000000000000000000000815260040161069d9061293f565b60405180910390fd5b600033905060005b8581101561079c5760008782815181106106cb576106ca61271b565b5b6020026020010151905060008583815181106106ea576106e961271b565b5b60200260200101516000015190506000610703836110ca565b90508073ffffffffffffffffffffffffffffffffffffffff166108fc839081150290604051600060405180830381858888f1935050505015801561074b573d6000803e3d6000fd5b50610757818685611107565b60016008600085815260200190815260200160002060010160006101000a81548160ff021916908315150217905550505050808061079490612885565b9150506106ae565b507fb48e035c83771b4d2631244bdc5b397fac119344e91b7d42c59a0c018039167081876040516107ce929190612a1d565b60405180910390a1505050505050565b6060600080546107ed90612a7c565b80601f016020809104026020016040519081016040528092919081815260200182805461081990612a7c565b80156108665780601f1061083b57610100808354040283529160200191610866565b820191906000526020600020905b81548152906001019060200180831161084957829003601f168201915b5050505050905090565b600061087b82611400565b6004600083815260200190815260200160002060009054906101000a900473ffffffffffffffffffffffffffffffffffffffff169050919050565b60006108c182610a4d565b90508073ffffffffffffffffffffffffffffffffffffffff168373ffffffffffffffffffffffffffffffffffffffff1603610931576040517f08c379a000000000000000000000000000000000000000000000000000000000815260040161092890612b1f565b60405180910390fd5b8073ffffffffffffffffffffffffffffffffffffffff1661095061144b565b73ffffffffffffffffffffffffffffffffffffffff16148061097f575061097e8161097961144b565b610f13565b5b6109be576040517f08c379a00000000000000000000000000000000000000000000000000000000081526004016109b590612bb1565b60405180910390fd5b6109c88383611453565b505050565b6109de6109d861144b565b8261150c565b610a1d576040517f08c379a0000000000000000000000000000000000000000000000000000000008152600401610a1490612c43565b60405180910390fd5b610a28838383611107565b505050565b610a4883838360405180602001604052806000815250610d9f565b505050565b600080610a59836110ca565b9050600073ffffffffffffffffffffffffffffffffffffffff168173ffffffffffffffffffffffffffffffffffffffff1603610aca576040517f08c379a0000000000000000000000000000000000000000000000000000000008152600401610ac190612caf565b60405180910390fd5b80915050919050565b60008073ffffffffffffffffffffffffffffffffffffffff168273ffffffffffffffffffffffffffffffffffffffff1603610b43576040517f08c379a0000000000000000000000000000000000000000000000000000000008152600401610b3a90612d41565b60405180910390fd5b600360008373ffffffffffffffffffffffffffffffffffffffff1673ffffffffffffffffffffffffffffffffffffffff168152602001908152602001600020549050919050565b60008211610bcd576040517f08c379a0000000000000000000000000000000000000000000000000000000008152600401610bc490612dad565b60405180910390fd5b6000339050610bdc60076115a1565b6000610be860076115b7565b90506000604051806040016040528086815260200160001515815250905080600860008481526020019081526020016000206000820151816000015560208201518160010160006101000a81548160ff021916908315150217905550905050610c5183836115c5565b610c5b82856117e2565b7f2cc161d398589ff5526cd6b429338ae827d66c48171d3dbaeac9a7bf822935bd82604051610c8a91906123f6565b60405180910390a15050505050565b606060018054610ca890612a7c565b80601f0160208091040260200160405190810160405280929190818152602001828054610cd490612a7c565b8015610d215780601f10610cf657610100808354040283529160200191610d21565b820191906000526020600020905b815481529060010190602001808311610d0457829003601f168201915b5050505050905090565b610d3d610d3661144b565b8383611886565b5050565b600080600060086000858152602001908152602001600020604051806040016040529081600082015481526020016001820160009054906101000a900460ff1615151515815250509050806000015181602001519250925050915091565b610db0610daa61144b565b8361150c565b610def576040517f08c379a0000000000000000000000000000000000000000000000000000000008152600401610de690612c43565b60405180910390fd5b610dfb848484846119f2565b50505050565b6060610e0c82611400565b6000600660008481526020019081526020016000208054610e2c90612a7c565b80601f0160208091040260200160405190810160405280929190818152602001828054610e5890612a7c565b8015610ea55780601f10610e7a57610100808354040283529160200191610ea5565b820191906000526020600020905b815481529060010190602001808311610e8857829003601f168201915b505050505090506000610eb6611a4e565b90506000815103610ecb578192505050610f0e565b600082511115610f00578082604051602001610ee8929190612e09565b60405160208183030381529060405292505050610f0e565b610f0984611a65565b925050505b919050565b6000600560008473ffffffffffffffffffffffffffffffffffffffff1673ffffffffffffffffffffffffffffffffffffffff16815260200190815260200160002060008373ffffffffffffffffffffffffffffffffffffffff1673ffffffffffffffffffffffffffffffffffffffff16815260200190815260200160002060009054906101000a900460ff16905092915050565b60007f80ac58cd000000000000000000000000000000000000000000000000000000007bffffffffffffffffffffffffffffffffffffffffffffffffffffffff1916827bffffffffffffffffffffffffffffffffffffffffffffffffffffffff1916148061107257507f5b5e139f000000000000000000000000000000000000000000000000000000007bffffffffffffffffffffffffffffffffffffffffffffffffffffffff1916827bffffffffffffffffffffffffffffffffffffffffffffffffffffffff1916145b80611082575061108182611acd565b5b9050919050565b60008073ffffffffffffffffffffffffffffffffffffffff166110ab836110ca565b73ffffffffffffffffffffffffffffffffffffffff1614159050919050565b60006002600083815260200190815260200160002060009054906101000a900473ffffffffffffffffffffffffffffffffffffffff169050919050565b8273ffffffffffffffffffffffffffffffffffffffff1661112782610a4d565b73ffffffffffffffffffffffffffffffffffffffff161461117d576040517f08c379a000000000000000000000000000000000000000000000000000000000815260040161117490612e9f565b60405180910390fd5b600073ffffffffffffffffffffffffffffffffffffffff168273ffffffffffffffffffffffffffffffffffffffff16036111ec576040517f08c379a00000000000000000000000000000000000000000000000000000000081526004016111e390612f31565b60405180910390fd5b6111f98383836001611b37565b8273ffffffffffffffffffffffffffffffffffffffff1661121982610a4d565b73ffffffffffffffffffffffffffffffffffffffff161461126f576040517f08c379a000000000000000000000000000000000000000000000000000000000815260040161126690612e9f565b60405180910390fd5b6004600082815260200190815260200160002060006101000a81549073ffffffffffffffffffffffffffffffffffffffff02191690556001600360008573ffffffffffffffffffffffffffffffffffffffff1673ffffffffffffffffffffffffffffffffffffffff168152602001908152602001600020600082825403925050819055506001600360008473ffffffffffffffffffffffffffffffffffffffff1673ffffffffffffffffffffffffffffffffffffffff16815260200190815260200160002060008282540192505081905550816002600083815260200190815260200160002060006101000a81548173ffffffffffffffffffffffffffffffffffffffff021916908373ffffffffffffffffffffffffffffffffffffffff160217905550808273ffffffffffffffffffffffffffffffffffffffff168473ffffffffffffffffffffffffffffffffffffffff167fddf252ad1be2c89b69c2b068fc378daa952ba7f163c4a11628f55a4df523b3ef60405160405180910390a46113fb8383836001611b3d565b505050565b61140981611089565b611448576040517f08c379a000000000000000000000000000000000000000000000000000000000815260040161143f90612caf565b60405180910390fd5b50565b600033905090565b816004600083815260200190815260200160002060006101000a81548173ffffffffffffffffffffffffffffffffffffffff021916908373ffffffffffffffffffffffffffffffffffffffff160217905550808273ffffffffffffffffffffffffffffffffffffffff166114c683610a4d565b73ffffffffffffffffffffffffffffffffffffffff167f8c5be1e5ebec7d5bd14f71427d1e84f3dd0314c0f7b2291e5b200ac8c7c3b92560405160405180910390a45050565b60008061151883610a4d565b90508073ffffffffffffffffffffffffffffffffffffffff168473ffffffffffffffffffffffffffffffffffffffff16148061155a57506115598185610f13565b5b8061159857508373ffffffffffffffffffffffffffffffffffffffff1661158084610870565b73ffffffffffffffffffffffffffffffffffffffff16145b91505092915050565b6001816000016000828254019250508190555050565b600081600001549050919050565b600073ffffffffffffffffffffffffffffffffffffffff168273ffffffffffffffffffffffffffffffffffffffff1603611634576040517f08c379a000000000000000000000000000000000000000000000000000000000815260040161162b90612f9d565b60405180910390fd5b61163d81611089565b1561167d576040517f08c379a000000000000000000000000000000000000000000000000000000000815260040161167490613009565b60405180910390fd5b61168b600083836001611b37565b61169481611089565b156116d4576040517f08c379a00000000000000000000000000000000000000000000000000000000081526004016116cb90613009565b60405180910390fd5b6001600360008473ffffffffffffffffffffffffffffffffffffffff1673ffffffffffffffffffffffffffffffffffffffff16815260200190815260200160002060008282540192505081905550816002600083815260200190815260200160002060006101000a81548173ffffffffffffffffffffffffffffffffffffffff021916908373ffffffffffffffffffffffffffffffffffffffff160217905550808273ffffffffffffffffffffffffffffffffffffffff16600073ffffffffffffffffffffffffffffffffffffffff167fddf252ad1be2c89b69c2b068fc378daa952ba7f163c4a11628f55a4df523b3ef60405160405180910390a46117de600083836001611b3d565b5050565b6117eb82611089565b61182a576040517f08c379a00000000000000000000000000000000000000000000000000000000081526004016118219061309b565b60405180910390fd5b8060066000848152602001908152602001600020908161184a9190613267565b507ff8e1a15aba9398e019f0b49df1a4fde98ee17ae345cb5f6b5e2c27f5033e8ce78260405161187a91906123f6565b60405180910390a15050565b8173ffffffffffffffffffffffffffffffffffffffff168373ffffffffffffffffffffffffffffffffffffffff16036118f4576040517f08c379a00000000000000000000000000000000000000000000000000000000081526004016118eb90613385565b60405180910390fd5b80600560008573ffffffffffffffffffffffffffffffffffffffff1673ffffffffffffffffffffffffffffffffffffffff16815260200190815260200160002060008473ffffffffffffffffffffffffffffffffffffffff1673ffffffffffffffffffffffffffffffffffffffff16815260200190815260200160002060006101000a81548160ff0219169083151502179055508173ffffffffffffffffffffffffffffffffffffffff168373ffffffffffffffffffffffffffffffffffffffff167f17307eab39ab6107e8899845ad3d59bd9653f200f220920489ca2b5937696c31836040516119e59190611fde565b60405180910390a3505050565b6119fd848484611107565b611a0984848484611b43565b611a48576040517f08c379a0000000000000000000000000000000000000000000000000000000008152600401611a3f90613417565b60405180910390fd5b50505050565b606060405180602001604052806000815250905090565b6060611a7082611400565b6000611a7a611a4e565b90506000815111611a9a5760405180602001604052806000815250611ac5565b80611aa484611cca565b604051602001611ab5929190612e09565b6040516020818303038152906040525b915050919050565b60007f01ffc9a7000000000000000000000000000000000000000000000000000000007bffffffffffffffffffffffffffffffffffffffffffffffffffffffff1916827bffffffffffffffffffffffffffffffffffffffffffffffffffffffff1916149050919050565b50505050565b50505050565b6000611b648473ffffffffffffffffffffffffffffffffffffffff16611d98565b15611cbd578373ffffffffffffffffffffffffffffffffffffffff1663150b7a02611b8d61144b565b8786866040518563ffffffff1660e01b8152600401611baf949392919061348c565b6020604051808303816000875af1925050508015611beb57506040513d601f19601f82011682018060405250810190611be891906134ed565b60015b611c6d573d8060008114611c1b576040519150601f19603f3d011682016040523d82523d6000602084013e611c20565b606091505b506000815103611c65576040517f08c379a0000000000000000000000000000000000000000000000000000000008152600401611c5c90613417565b60405180910390fd5b805181602001fd5b63150b7a0260e01b7bffffffffffffffffffffffffffffffffffffffffffffffffffffffff1916817bffffffffffffffffffffffffffffffffffffffffffffffffffffffff191614915050611cc2565b600190505b949350505050565b606060006001611cd984611dbb565b01905060008167ffffffffffffffff811115611cf857611cf761200f565b5b6040519080825280601f01601f191660200182016040528015611d2a5781602001600182028036833780820191505090505b509050600082602001820190505b600115611d8d578080600190039150507f3031323334353637383961626364656600000000000000000000000000000000600a86061a8153600a8581611d8157611d8061351a565b5b04945060008503611d38575b819350505050919050565b6000808273ffffffffffffffffffffffffffffffffffffffff163b119050919050565b600080600090507a184f03e93ff9f4daa797ed6e38ed64bf6a1f0100000000000000008310611e19577a184f03e93ff9f4daa797ed6e38ed64bf6a1f0100000000000000008381611e0f57611e0e61351a565b5b0492506040810190505b6d04ee2d6d415b85acef81000000008310611e56576d04ee2d6d415b85acef81000000008381611e4c57611e4b61351a565b5b0492506020810190505b662386f26fc100008310611e8557662386f26fc100008381611e7b57611e7a61351a565b5b0492506010810190505b6305f5e1008310611eae576305f5e1008381611ea457611ea361351a565b5b0492506008810190505b6127108310611ed3576127108381611ec957611ec861351a565b5b0492506004810190505b60648310611ef65760648381611eec57611eeb61351a565b5b0492506002810190505b600a8310611f05576001810190505b80915050919050565b6040518060400160405280600081526020016000151581525090565b6000604051905090565b600080fd5b600080fd5b60007fffffffff0000000000000000000000000000000000000000000000000000000082169050919050565b611f7381611f3e565b8114611f7e57600080fd5b50565b600081359050611f9081611f6a565b92915050565b600060208284031215611fac57611fab611f34565b5b6000611fba84828501611f81565b91505092915050565b60008115159050919050565b611fd881611fc3565b82525050565b6000602082019050611ff36000830184611fcf565b92915050565b600080fd5b6000601f19601f8301169050919050565b7f4e487b7100000000000000000000000000000000000000000000000000000000600052604160045260246000fd5b61204782611ffe565b810181811067ffffffffffffffff821117156120665761206561200f565b5b80604052505050565b6000612079611f2a565b9050612085828261203e565b919050565b600067ffffffffffffffff8211156120a5576120a461200f565b5b602082029050602081019050919050565b600080fd5b6000819050919050565b6120ce816120bb565b81146120d957600080fd5b50565b6000813590506120eb816120c5565b92915050565b60006121046120ff8461208a565b61206f565b90508083825260208201905060208402830185811115612127576121266120b6565b5b835b81811015612150578061213c88826120dc565b845260208401935050602081019050612129565b5050509392505050565b600082601f83011261216f5761216e611ff9565b5b813561217f8482602086016120f1565b91505092915050565b60006020828403121561219e5761219d611f34565b5b600082013567ffffffffffffffff8111156121bc576121bb611f39565b5b6121c88482850161215a565b91505092915050565b600081519050919050565b600082825260208201905092915050565b60005b8381101561220b5780820151818401526020810190506121f0565b60008484015250505050565b6000612222826121d1565b61222c81856121dc565b935061223c8185602086016121ed565b61224581611ffe565b840191505092915050565b6000602082019050818103600083015261226a8184612217565b905092915050565b60006020828403121561228857612287611f34565b5b6000612296848285016120dc565b91505092915050565b600073ffffffffffffffffffffffffffffffffffffffff82169050919050565b60006122ca8261229f565b9050919050565b6122da816122bf565b82525050565b60006020820190506122f560008301846122d1565b92915050565b612304816122bf565b811461230f57600080fd5b50565b600081359050612321816122fb565b92915050565b6000806040838503121561233e5761233d611f34565b5b600061234c85828601612312565b925050602061235d858286016120dc565b9150509250929050565b6000806000606084860312156123805761237f611f34565b5b600061238e86828701612312565b935050602061239f86828701612312565b92505060406123b0868287016120dc565b9150509250925092565b6000602082840312156123d0576123cf611f34565b5b60006123de84828501612312565b91505092915050565b6123f0816120bb565b82525050565b600060208201905061240b60008301846123e7565b92915050565b600080fd5b600067ffffffffffffffff8211156124315761243061200f565b5b61243a82611ffe565b9050602081019050919050565b82818337600083830152505050565b600061246961246484612416565b61206f565b90508281526020810184848401111561248557612484612411565b5b612490848285612447565b509392505050565b600082601f8301126124ad576124ac611ff9565b5b81356124bd848260208601612456565b91505092915050565b600080604083850312156124dd576124dc611f34565b5b60006124eb858286016120dc565b925050602083013567ffffffffffffffff81111561250c5761250b611f39565b5b61251885828601612498565b9150509250929050565b61252b81611fc3565b811461253657600080fd5b50565b60008135905061254881612522565b92915050565b6000806040838503121561256557612564611f34565b5b600061257385828601612312565b925050602061258485828601612539565b9150509250929050565b60006040820190506125a360008301856123e7565b6125b06020830184611fcf565b9392505050565b600067ffffffffffffffff8211156125d2576125d161200f565b5b6125db82611ffe565b9050602081019050919050565b60006125fb6125f6846125b7565b61206f565b90508281526020810184848401111561261757612616612411565b5b612622848285612447565b509392505050565b600082601f83011261263f5761263e611ff9565b5b813561264f8482602086016125e8565b91505092915050565b6000806000806080858703121561267257612671611f34565b5b600061268087828801612312565b945050602061269187828801612312565b93505060406126a2878288016120dc565b925050606085013567ffffffffffffffff8111156126c3576126c2611f39565b5b6126cf8782880161262a565b91505092959194509250565b600080604083850312156126f2576126f1611f34565b5b600061270085828601612312565b925050602061271185828601612312565b9150509250929050565b7f4e487b7100000000000000000000000000000000000000000000000000000000600052603260045260246000fd5b7f746f6b656e496420646f6573206e6f7420657869747300000000000000000000600082015250565b60006127806016836121dc565b915061278b8261274a565b602082019050919050565b600060208201905081810360008301526127af81612773565b9050919050565b7f746865206974656d20697320616c726561647920736f6c640000000000000000600082015250565b60006127ec6018836121dc565b91506127f7826127b6565b602082019050919050565b6000602082019050818103600083015261281b816127df565b9050919050565b7f4e487b7100000000000000000000000000000000000000000000000000000000600052601160045260246000fd5b600061285c826120bb565b9150612867836120bb565b925082820190508082111561287f5761287e612822565b5b92915050565b6000612890826120bb565b91507fffffffffffffffffffffffffffffffffffffffffffffffffffffffffffffffff82036128c2576128c1612822565b5b600182019050919050565b7f726571757269656420707269636520616e6420627579696e672070726963652060008201527f73686f756c64206265206d617463686564000000000000000000000000000000602082015250565b60006129296031836121dc565b9150612934826128cd565b604082019050919050565b600060208201905081810360008301526129588161291c565b9050919050565b600081519050919050565b600082825260208201905092915050565b6000819050602082019050919050565b612994816120bb565b82525050565b60006129a6838361298b565b60208301905092915050565b6000602082019050919050565b60006129ca8261295f565b6129d4818561296a565b93506129df8361297b565b8060005b83811015612a105781516129f7888261299a565b9750612a02836129b2565b9250506001810190506129e3565b5085935050505092915050565b6000604082019050612a3260008301856122d1565b8181036020830152612a4481846129bf565b90509392505050565b7f4e487b7100000000000000000000000000000000000000000000000000000000600052602260045260246000fd5b60006002820490506001821680612a9457607f821691505b602082108103612aa757612aa6612a4d565b5b50919050565b7f4552433732313a20617070726f76616c20746f2063757272656e74206f776e6560008201527f7200000000000000000000000000000000000000000000000000000000000000602082015250565b6000612b096021836121dc565b9150612b1482612aad565b604082019050919050565b60006020820190508181036000830152612b3881612afc565b9050919050565b7f4552433732313a20617070726f76652063616c6c6572206973206e6f7420746f60008201527f6b656e206f776e6572206f7220617070726f76656420666f7220616c6c000000602082015250565b6000612b9b603d836121dc565b9150612ba682612b3f565b604082019050919050565b60006020820190508181036000830152612bca81612b8e565b9050919050565b7f4552433732313a2063616c6c6572206973206e6f7420746f6b656e206f776e6560008201527f72206f7220617070726f76656400000000000000000000000000000000000000602082015250565b6000612c2d602d836121dc565b9150612c3882612bd1565b604082019050919050565b60006020820190508181036000830152612c5c81612c20565b9050919050565b7f4552433732313a20696e76616c696420746f6b656e2049440000000000000000600082015250565b6000612c996018836121dc565b9150612ca482612c63565b602082019050919050565b60006020820190508181036000830152612cc881612c8c565b9050919050565b7f4552433732313a2061646472657373207a65726f206973206e6f74206120766160008201527f6c6964206f776e65720000000000000000000000000000000000000000000000602082015250565b6000612d2b6029836121dc565b9150612d3682612ccf565b604082019050919050565b60006020820190508181036000830152612d5a81612d1e565b9050919050565b7f70726963652073686f756c6420626520676574746572207468616e2030000000600082015250565b6000612d97601d836121dc565b9150612da282612d61565b602082019050919050565b60006020820190508181036000830152612dc681612d8a565b9050919050565b600081905092915050565b6000612de3826121d1565b612ded8185612dcd565b9350612dfd8185602086016121ed565b80840191505092915050565b6000612e158285612dd8565b9150612e218284612dd8565b91508190509392505050565b7f4552433732313a207472616e736665722066726f6d20696e636f72726563742060008201527f6f776e6572000000000000000000000000000000000000000000000000000000602082015250565b6000612e896025836121dc565b9150612e9482612e2d565b604082019050919050565b60006020820190508181036000830152612eb881612e7c565b9050919050565b7f4552433732313a207472616e7366657220746f20746865207a65726f2061646460008201527f7265737300000000000000000000000000000000000000000000000000000000602082015250565b6000612f1b6024836121dc565b9150612f2682612ebf565b604082019050919050565b60006020820190508181036000830152612f4a81612f0e565b9050919050565b7f4552433732313a206d696e7420746f20746865207a65726f2061646472657373600082015250565b6000612f876020836121dc565b9150612f9282612f51565b602082019050919050565b60006020820190508181036000830152612fb681612f7a565b9050919050565b7f4552433732313a20746f6b656e20616c7265616479206d696e74656400000000600082015250565b6000612ff3601c836121dc565b9150612ffe82612fbd565b602082019050919050565b6000602082019050818103600083015261302281612fe6565b9050919050565b7f45524337323155524953746f726167653a2055524920736574206f66206e6f6e60008201527f6578697374656e7420746f6b656e000000000000000000000000000000000000602082015250565b6000613085602e836121dc565b915061309082613029565b604082019050919050565b600060208201905081810360008301526130b481613078565b9050919050565b60008190508160005260206000209050919050565b60006020601f8301049050919050565b600082821b905092915050565b60006008830261311d7fffffffffffffffffffffffffffffffffffffffffffffffffffffffffffffffff826130e0565b61312786836130e0565b95508019841693508086168417925050509392505050565b6000819050919050565b600061316461315f61315a846120bb565b61313f565b6120bb565b9050919050565b6000819050919050565b61317e83613149565b61319261318a8261316b565b8484546130ed565b825550505050565b600090565b6131a761319a565b6131b2818484613175565b505050565b5b818110156131d6576131cb60008261319f565b6001810190506131b8565b5050565b601f82111561321b576131ec816130bb565b6131f5846130d0565b81016020851015613204578190505b613218613210856130d0565b8301826131b7565b50505b505050565b600082821c905092915050565b600061323e60001984600802613220565b1980831691505092915050565b6000613257838361322d565b9150826002028217905092915050565b613270826121d1565b67ffffffffffffffff8111156132895761328861200f565b5b6132938254612a7c565b61329e8282856131da565b600060209050601f8311600181146132d157600084156132bf578287015190505b6132c9858261324b565b865550613331565b601f1984166132df866130bb565b60005b82811015613307578489015182556001820191506020850194506020810190506132e2565b868310156133245784890151613320601f89168261322d565b8355505b6001600288020188555050505b505050505050565b7f4552433732313a20617070726f766520746f2063616c6c657200000000000000600082015250565b600061336f6019836121dc565b915061337a82613339565b602082019050919050565b6000602082019050818103600083015261339e81613362565b9050919050565b7f4552433732313a207472616e7366657220746f206e6f6e20455243373231526560008201527f63656976657220696d706c656d656e7465720000000000000000000000000000602082015250565b60006134016032836121dc565b915061340c826133a5565b604082019050919050565b60006020820190508181036000830152613430816133f4565b9050919050565b600081519050919050565b600082825260208201905092915050565b600061345e82613437565b6134688185613442565b93506134788185602086016121ed565b61348181611ffe565b840191505092915050565b60006080820190506134a160008301876122d1565b6134ae60208301866122d1565b6134bb60408301856123e7565b81810360608301526134cd8184613453565b905095945050505050565b6000815190506134e781611f6a565b92915050565b60006020828403121561350357613502611f34565b5b6000613511848285016134d8565b91505092915050565b7f4e487b7100000000000000000000000000000000000000000000000000000000600052601260045260246000fdfea2646970667358221220c034f48ac28d5e4f25cc2ff34ea26c8517da9e59b8ba4aa449b8b92564533cac64736f6c63430008120033",
  "linkReferences": {},
  "deployedLinkReferences": {}
}